:020000040800F2
:100000004015002001010008E51200086D010008FC
:10001000E1120008AD020008D91B00080000000032
:10002000000000000000000000000000291500088A
:100030002D03000800000000E71200082D1500083D
:100040001B0100081B0100081B0100081B01000820
:100050001B0100081B0100081B0100081B01000810
:100060001B0100081B0100081B0100081B01000800
:100070001B0100081B0100081B0100081B010008F0
:100080001B0100081B0100081B0100081B010008E0
:100090001B0100081B0100081B0100081B010008D0
:1000A0001B0100081B0100081B0100081B010008C0
:1000B000AD1600081B010008000000001B0100082D
:1000C0001B01000800000000000000001B010008E8
:1000D0000000000065190008751900080000000004
:1000E0001B0100081B0100081B010008DFF80CD0F1
:1000F00000F02AF80048004785210008401500203C
:100100000648804706480047FEE7FEE7FEE7FEE7B1
:10011000FEE7FEE7FEE7FEE7FEE7FEE7551600080E
:10012000ED000008D2B201E000F8012B491EFBD21D
:1001300070470022F6E710B513460A4604461946F2
:10014000FFF7F0FF204610BD064C074D06E0E068C3
:1001500040F0010394E8070098471034AC42F6D30E
:10016000FFF7C8FF70220008902200081EF0040F5D
:100170000CBFEFF30880EFF3098000F005BF00002B
:1001800008B5642001F0F0FD04E09DF8001005A022
:1001900001F024FD6946012001F0BCFF0028F4D1E4
:1001A00008BD00002563000038B500200090002441
:1001B0000025092221A1012001F0BBFF3BE0694697
:1001C000012001F0A7FF062C34D2DFE804F0030B76
:1001D000131B232B9DF800002B2801D1012400E0E4
:1001E000002427E09DF800004E2801D1022400E001
:1001F00001241FE09DF80000492801D1032400E0FC
:10020000022417E09DF80000542801D1042400E0E6
:1002100003240FE09DF800005A2801D1052400E0D6
:10022000042407E09DF800003A2801D1062400E0EC
:10023000052400BF00BF062CC1DB38BD41542B5242
:10024000455345540D00000010B503220DA10120B7
:1002500001F06FFFFFF794FF08220BA1012001F0CE
:1002600068FFFFF78DFF09220AA1012001F061FF5D
:10027000FFF786FF09220AA1012001F05AFFFFF7CC
:100280007FFF10BD41540D0041542B435354540D76
:100290000000000041542B43494943520D00000027
:1002A00041542B43494653520D00000000BFFEE766
:1002B00010B504460CB9124810BD012C01D11148EB
:1002C000FAE7022C01D10020F6E7032C01D100202F
:1002D000F2E7042C01D10020EEE7052C01D100202B
:1002E000EAE7062C01D10020E6E7072C01D1002027
:1002F000E2E74FF48E7104A000F019F80020DBE76C
:10030000A8000020D40800202E2E5C2E2E5C5573F1
:1003100065725C6273705C7372635C6273705F754C
:100320006172745F6669666F2E630000704701B981
:10033000704700BFFEE700002DE9F84703460022A2
:10034000944666E14FF0010808FA02F4D1F8008003
:1003500008EA0400A0427DD1DFF8CCA2D1F80480E5
:10036000A8EB0A09D0453AD014DCB8F1030F50D0FD
:1003700009DCB8F1000F31D0B8F1010F1CD0B8F191
:10038000020F49D120E0B8F1110F18D0B8F1120FC7
:1003900042D11EE0B9F5881F25D006DCB9F5803FB3
:1003A00020D0B9F5801F37D11AE0B9F5001F18D059
:1003B000B9F5041F30D117E0D1F80CC02DE0D1F809
:1003C0000C8008F1040C28E0D1F80C8008F1080C2E
:1003D00023E0D1F80C8008F10C0C1EE000BF00BF38
:1003E00000BF00BF00BF00BFD1F80880B8F1000F08
:1003F00002D14FF0040C0BE0D1F80880B8F1010FE6
:1004000003D14FF0080C1C6102E04FF0080C5C6156
:1004100003E04FF0000C00E000BF00BFFF2801D850
:10042000984601E003F104084646FF2802D84FEA47
:10043000820803E0A2F108084FEA88084746D6F888
:1004400000804FF00F0909FA07F928EA09080CFAA9
:1004500007F900E085E048EA0908C6F80080D1F80D
:10046000048008F08058B8F1805F7AD100BFDFF8CF
:10047000BC81D8F8188048F00108DFF8B091C9F8BD
:100480001880C846D8F8188008F00108CDF8008018
:1004900000BF00BF4FEAB9384FEA920958F8295017
:1004A0004FEA82784FEA18794FF00F0808FA09F8F6
:1004B00025EA0805DFF87881434502D14FF00008AE
:1004C0000FE0DFF87081434502D14FF0010808E0EA
:1004D000DFF86481434502D14FF0020801E04FF09C
:1004E00003084FEA82794FEA197908FA09F848EACD
:1004F0000505DFF848814FEA920948F82950D1F8FC
:10050000048008F48038B8F5803F0AD1DFF83081E4
:10051000D8F8008048EA0008DFF82491C9F8008084
:1005200009E0DFF81C81D8F8008028EA0008DFF82D
:100530001091C9F80080D1F8048008F40038B8F5AB
:10054000003F0FD1DFF8F88008F10408D8F80080E8
:1005500048EA0008DFF8E89009F10409C9F80080CA
:100560000EE055E0DFF8D88008F10408D8F80080E4
:1005700028EA0008DFF8C89009F10409C9F80080EA
:10058000D1F8048008F48018B8F5801F0ED1DFF888
:10059000B08008F10808D8F8008048EA0008DFF8C1
:1005A000A09009F10809C9F800800DE0DFF89080FB
:1005B00008F10808D8F8008028EA0008DFF88090E1
:1005C00009F10809C9F80080D1F8048008F400187E
:1005D000B8F5001F0ED1DFF8688008F10C08D8F8D4
:1005E000008048EA0008DFF8589009F10C09C9F8C2
:1005F00000800DE0DFF8488008F10C08D8F8008092
:1006000028EA0008DFF8389009F10C09C9F80080E1
:10061000521CD1F8008028FA02F8B8F1000F7FF4DC
:1006200091AEBDE8F88700000000111000100240F4
:1006300000080140000C014000100140080001408A
:10064000000401400AB1016101E00B04036170473D
:10065000014800687047000020000020034800683F
:1006600003490978084401490860704720000020C8
:100670002800002010B50848006840F01000064926
:100680000860032000F080F80F2000F007F800F069
:100690002BF8002010BD00000020024070B5044679
:1006A0000E4800784FF47A71B1FBF0F00C490968FC
:1006B000B1FBF0F5284600F0E3FB08B1012070BD66
:1006C000102C07D200222146501E00F01EF80548CB
:1006D000046001E00120F2E70020F0E7280000209C
:1006E0002C00002024000020704701460846002806
:1006F00009DB00F01F0301229A4043099B0003F12C
:10070000E023C3F8002100BF70472DE9F05F804669
:100710000D461646002701F071FA074639462A466B
:10072000334601F00700C0F1070ABAF1040F02D9FD
:100730004FF0040A01E0C0F1070AD14600F1040AB3
:10074000BAF1070F02D24FF0000A01E0A0F1030A4C
:10075000D4464FF0010A0AFA09FAAAF1010A0AEA94
:10076000020A0AFA0CFA4FF0010B0BFA0CFBABF180
:10077000010B0BEA030B4AEA0B042146404601F049
:1007800045FABDE8F09F000000BF00F00702064BED
:1007900019684FF6FF031940044B0B4343EA02214B
:1007A000014B196000BF70470CED00E00000FA0536
:1007B00070B504460D460CB9012070BD5A4800685A
:1007C00000F00700A8420ED25748006820F007004A
:1007D0002843554908600846006800F00700A84211
:1007E00001D00120E9E7207800F0020002281DD1A5
:1007F000207800F00400042805D14C48406840F4FB
:10080000E0604A494860207800F00800082805D1D7
:100810004648406840F46050444948604348406856
:1008200020F0F000A168084340494860207800F0BB
:10083000010078B36068012806D13C48006800F4E4
:10084000003090B90120B8E76068022806D1374827
:10085000006800F0007040B90120AEE7334800683E
:1008600000F0020008B90120A7E73048406820F0F6
:100870000300616808432D494860FFF7E9FE06461A
:1008800009E0FFF7E5FE801B41F28831884202D97A
:10089000032092E707E02548406800F00C006168FB
:1008A000B0EB810FEDD12048006800F00700A842AE
:1008B0000ED91D48006820F0070028431A49086037
:1008C0000846006800F00700A84201D0012074E744
:1008D000207800F00400042807D11448406820F470
:1008E000E060E168084311494860207800F00800A2
:1008F000082808D10D48406820F46050216940EA7A
:10090000C1000A49486000F03FF808494968C1F34E
:100910000311074A515CC840064908600648006850
:10092000FFF7BCFE002048E7002002400010024014
:10093000582200082C0000202400002001480068F4
:10094000704700002C00002000B5FFF7F7FF0449B6
:100950004968C1F30221034A515CC84000BD000050
:10096000001002406822000800B5FFF7E7FF0449C5
:100970004968C1F3C221034A515CC84000BD000070
:100980000010024068220008F0B585B00FF26C0C30
:100990009CE8E01001A8A0E8E0101CA52D680095D7
:1009A00000210022002300240020194D696801F075
:1009B0000C05F5B1042D02D0082D19D101E0154820
:1009C00019E001ADC1F38346AC5D01F4803555B14A
:1009D0000F4D6D68C5F340451DF805200D4D65436D
:1009E000B5FBF2F302E00C4D04FB05F3184602E000
:1009F00000BF084800BF00BF05B0F0BD02030405FA
:100A0000060708090A0B0C0D0E0F1010010200005A
:100A10000010024000127A0000093D00F8B50446BB
:100A20000CB90120F8BD207800F00100002878D032
:100A3000F848406800F00C0004280CD0F5484068E5
:100A400000F00C00082811D1F248406800F4803012
:100A5000B0F5803F0AD1EF48006800F4003000286C
:100A60005FD0606800285CD10120DBE700BF6068D0
:100A7000B0F5803F06D1E748006840F48030E54992
:100A8000086028E0606858B9E248006820F48030C7
:100A9000E04908600846006820F4802008601AE0F9
:100AA0006068B0F5A02F0BD1DA48006840F48020D0
:100AB000D84908600846006840F4803008600AE0C1
:100AC000D448006820F48030D249086008460068A5
:100AD00020F48020086000BF606888B1FFF7B8FD8F
:100AE000054606E0FFF7B4FD401B642801D903204A
:100AF00098E7C848006800F400300028F2D010E001
:100B0000FFF7A6FD054606E0FFF7A2FD401B64289F
:100B100001D9032086E7BF48006800F400300028B0
:100B2000F2D1207800F00200022857D1B94840687D
:100B300000F00C0050B1B748406800F00C000828E5
:100B400018D1B448406800F4803098B9B1480068C2
:100B500000F0020020B12069012801D0012061E7E6
:100B6000AC48006820F0F800616940EAC100A9497A
:100B7000086033E02069E8B10120A7490860FFF769
:100B800067FD054606E0FFF763FD401B022801D91B
:100B9000032047E79F48006800F002000028F2D0D9
:100BA0009C48006820F0F800616940EAC10099495A
:100BB000086013E0002098490860FFF749FD0546EA
:100BC00006E0FFF745FD401B022801D9032029E775
:100BD0009048006800F002000028F2D1207800F070
:100BE000080008282DD1A069B8B101208B49086000
:100BF000FFF72EFD054606E0FFF72AFD401B022801
:100C000001D903200EE78348406A00F00200002863
:100C1000F2D0012000F00EFC13E000207F490860B4
:100C2000FFF716FD054606E0FFF712FD401B022800
:100C300001D90320F6E67748406A00F00200002858
:100C4000F2D1207800F00400042873D10027714805
:100C5000C06900F0805070B900BF6E48C06940F0B4
:100C600080506C49C8610846C06900F0805000900F
:100C700000BF00BF01276A48006800F48070B0B967
:100C80006748006840F4807065490860FFF7E0FC41
:100C9000054606E0FFF7DCFC401B642801D9032071
:100CA000C0E65F48006800F480700028F2D000BF02
:100CB000E068012806D15748006A40F00100554914
:100CC000086227E0E06858B95248006A20F0010045
:100CD000504908620846006A20F00400086219E0E2
:100CE000E06805280BD14B48006A40F004004949F0
:100CF00008620846006A40F0010008620AE04548C0
:100D0000006A20F00100434908620846006A20F0AA
:100D10000400086200BFE068A0B1FFF799FC054637
:100D200009E0FFF795FC401B41F28831884202D967
:100D3000032077E622E03748006A00F0020000282E
:100D4000EFD012E0FFF784FC054608E0FFF780FCD7
:100D5000401B41F28831884201D9032062E62D48C8
:100D6000006A00F002000028F0D1012F05D12948C7
:100D7000C06920F080502749C86100BFE069C8B34E
:100D80002448406800F00C00082860D0E069022880
:100D900048D1002020490866FFF75AFC054606E0C6
:100DA000FFF756FC401B022801D903203AE61948F8
:100DB000006800F000700028F2D1206AB0F5803F92
:100DC00007D11448406820F40030A1680843114955
:100DD0004860D4E9080108430E49496821F47411B8
:100DE00008430C49486001200B490866FFF730FCB6
:100DF000054607E03DE0FFF72BFC401B022801D928
:100E000003200FE60348006800F000700028F2D0CD
:100E10002FE00000001002400000424280044242E5
:100E200000700040002014490866FFF711FC0546D9
:100E300006E0FFF70DFC401B022801D90320F1E575
:100E40000E48006800F000700028F2D111E0E0695F
:100E5000012800D1E6E50948466806F48031206A99
:100E6000814204D106F47011606A814201D00120F0
:100E7000D8E50020D6E50000000042420010024004
:100E800070B504462546681EB0F1807F01D301206D
:100E90000FE0681E4FF0E02148610F214FF0FF3056
:100EA00000F0B4FE00204FF0E021886107200861C7
:100EB000002070BD10B504460CB9012010BD94F897
:100EC0003D0028B9002084F83C00204600F00CF8D2
:100ED000022084F83D00211D206800F041FC012023
:100EE00084F83D000020E9E770470146022081F8C0
:100EF0003D000868806800F00702062A05D00868EF
:100F0000006840F001000B681860012081F83D0086
:100F10000020704710B504460CB9012010BDA0692F
:100F200000B100E000BF94F8390028B9002084F82F
:100F30003800204600F027F8242084F83900206883
:100F4000C06820F400502168C860204600F03AFCD8
:100F50002068006920F49040216808612068406999
:100F600020F02A00216848612068C06840F40050E1
:100F70002168C8600020E063202084F8390084F8EC
:100F80003A000020CAE7704710B53249096801F0FD
:100F9000004149B12F49096841F000412D4A1160D3
:100FA0008169891C816110BD2A49083909682A4A6A
:100FB00011622849091F097882F824102549C91EA1
:100FC0000978916223490C310968D1622149891E4F
:100FD000098811861F49096851631E49091D09685E
:100FE00091631C4910310968D1631CA200210CE0F7
:100FF000535C254C236000BF234B1B1F1B6803F071
:101000004003002BF8D04B1CD9B22929F0D3002182
:101010001E4A116000BF1D4909680029FBD00E4A15
:10102000016811604168516081689160C168D16058
:10103000016911614169516181699161C169D16140
:101040000021124A116000BF104909680029FBD035
:1010500000BFA8E72CED00E0001100200D0A456E4E
:1010600074657220486172644661756C745F486192
:101070006E646C65722C2053797374656D204861C1
:101080006C742E0D0A00000004380140300000206E
:1010900000B585B000BF5D48806940F004005B4941
:1010A00088610846806900F00400009000BF00BF1E
:1010B00000BF0846806940F00400886108468069E6
:1010C00000F00400009000BF00BF00BF0846806928
:1010D00040F4804088610846806900F480400090B8
:1010E00000BF00BF4815019002200290012003902C
:1010F0000320049001A94648FFF71EF94FF48060D1
:10110000019001A94248FFF717F90122002125208B
:10111000FFF7FBFA2520FFF7E8FA0C2300224FF433
:10112000E1313C4800F060FF3A48006820F04000A0
:10113000384908600846006820F0200008603548FB
:101140000C30006840F0200032490C31086000BFCC
:101150002E48806940F004002C4988610846806967
:1011600000F00400009000BF00BF00BF0846806987
:1011700040F0040088610846806900F00400009097
:1011800000BF00BF00BF0846C06940F40030C8611E
:101190000846C06900F40030009000BF00BF042082
:1011A000019002200290012003900320049001A9E5
:1011B0001748FFF7C1F80820019001A91448FFF76C
:1011C000BBF8022200212620FFF79FFA2620FFF716
:1011D0008CFA0C2300224FF4E1310F4800F004FF99
:1011E0000D48006820F040000B4908600846006880
:1011F00020F02000086008480C30006840F0200013
:1012000005490C31086005B000BD00000010024027
:1012100000080140003801400044004038B500207B
:1012200000900024002509222AA1012000F081FF5E
:10123000642000F099FD49E06946012000F06AFF52
:10124000052C42D2DFE804F0030D17212B009DF896
:1012500000000D2802D10120044601E000200446D0
:1012600033E09DF800000A2802D10220044601E084
:101270000120044629E09DF800000D2802D103203A
:10128000044601E0022004461FE09DF800000A2801
:1012900002D10420044601E00320044615E09DF835
:1012A00000002B2800D100259DF80000392804DC1F
:1012B0009DF80000302800DB0125012000F054FDDE
:1012C000012000F019FF284638BD00BF052CB3DB14
:1012D00000BFF9E741542B43494653520D0000002B
:1012E00000BFFEE77047704710B505A000F076FC20
:1012F00008A000F073FC0DA000F070FC10BD000011
:1013000041697237383045B2E2CAD4B3CCD0F23A30
:101310000D0A0000312E20B2E5C8EB53494DBFA89D
:10132000A3ACC9CFB5E7A1A30D0A0000322E20530C
:10133000544D3332B7A2CBCD4154D6B8C1EED2AA68
:10134000C7F341697237383065C1AACDF8A3ACC87C
:10135000E7B9FBC1AACDF8B3C9B9A6D4F2B4F2BFBC
:10136000AABCCCB5E7C6F7A1A30D0A0010B509A029
:1013700000F034FC08A000F031FC17A11AA000F026
:101380002DFC1EA11EA000F029FC22A124A000F02B
:1013900025FC10BD0A0D00002A2A2A2A2A2A2A2AF8
:1013A0002A2A2A2A2A2A2A2A2A2A2A2A2A2A2A2A9D
:1013B0002A2A2A2A2A2A2A2A2A2A2A2A2A2A2A2A8D
:1013C0002A2A2A2A2A2A2A2A2A2A2A2A2A2A2A2A7D
:1013D0002A2A2A2A2A0A0D0041697237383045B272
:1013E000E2CAD4B3CCD0F2002A20C0FDB3CCC3FBF8
:1013F000B3C62020203A2025730D0A00312E30007C
:101400002A20C0FDB3CCB0E6B1BE2020203A202572
:10141000730D0A00323032342D30342D3232000058
:101420002A20B7A2B2BCC8D5C6DA2020203A20258F
:10143000730D0A0008B508490968C9084FF47A72A3
:10144000B1FBF2F14143009100BF00BF00994A1E79
:1014500000920029F9D108BD2C00002000B585B00C
:1014600000BF0D48806940F008000B4988610846BC
:10147000806900F00800009000BF00BF01200290CA
:1014800000200390032004900420019001A9034848
:10149000FEF752FF05B000BD00100240000C0140F5
:1014A00000B585B000BF0D48806940F008000B49C9
:1014B00088610846806900F00800009000BF00BF06
:1014C00088150190012002900020039003200490D1
:1014D00001A90348FEF730FF05B000BD001002402F
:1014E000000C014000B585B000BF0D48806940F098
:1014F00008000B4988610846806900F008000090E8
:1015000000BF00BF48150190012002900020039009
:101510000320049001A90348FEF70EFF05B000BDAB
:1015200000100240000C01407047000010B5FFF7AA
:1015300095F80448007800B910BD00F005F800BF28
:10154000FAE700001C00002010B51B48006840B1FD
:1015500019480068401E1849086010B90120174951
:101560000870002408E004EB4401154A02EB8100F6
:1015700000F066FD601CC4B2042CF4DB1148006866
:10158000401C10490860084600686FF0004188421E
:1015900002D100200B49086000F025FD0A480078C0
:1015A000401CC0B2084908700A2803DB00200870FC
:1015B00000F018FD10BD00001000002014000020F5
:1015C00078000020180000201D00002000B58FB01A
:1015D000282105A8FEF7ADFD14216846FEF7A9FDF8
:1015E000012005900004069000200790012009903A
:1015F00002200C90C1030D914FF4E0110E9105A84B
:10160000FFF70CFA18B16C210CA0FEF790FE0F202A
:10161000009002200190002002904FF4806003901F
:101620000020049002216846FFF7C2F818B17A2121
:1016300002A0FEF77CFE0FB000BD00002E2E5C2E37
:101640002E5C557365725C6273705C6273702E639E
:10165000000000001148006840F001000F490860D8
:10166000084640680E4908400C4948600846006832
:101670000C490840094908600846006820F48020A9
:1016800008600846406820F4FE0048604FF41F00E0
:101690008860C803044908607047000000100240D9
:1016A0000000FFF8FFFFF6FE08ED00E070B5002532
:1016B00000264FF08044206900F00205E06800F049
:1016C00002065DB156B14FF6FD702061E0684FF63D
:1016D000FD710840E0601E4800688047206900F006
:1016E0000405E06800F004065DB156B14FF6FB70EA
:1016F0002061E0684FF6FB710840E0601548006823
:101700008047206900F00805E06800F008065DB138
:1017100056B14FF6F7702061E0684FF6F771084058
:10172000E0600D4800688047206900F01005E0681F
:1017300000F010065DB156B14FF6EF702061E06821
:101740004FF6EF710840E06004480068804770BDC4
:101750000000002004000020080000200C000020F1
:1017600010B50268154B984205D0B0F1804F02D0F9
:10177000134B984203D122F070024B681A430F4B6F
:10178000984205D0B0F1804F02D00D4B984203D162
:1017900022F44072CB681A4322F080034C6943EA7A
:1017A000040202608B68C3620B688362034B984239
:1017B00001D10B6903630123436110BD002C01407B
:1017C0000004004070B504462168096921F44051C5
:1017D000E2681143226811612269A16811436269BC
:1017E00041EA02052168C96841F20C62914329432C
:1017F0002268D1602168496921F44071A2691143CE
:1018000022685161564A2168914254D1FFF7ACF8E1
:1018100000EBC00101EB001162689200B1FBF2F134
:1018200000EBC00202EB001263689B00B2FBF3F214
:101830006423B2FBF3F202EBC20303EB0212A1EB4F
:101840008201322202EB01116422B1FBF2F101F0BC
:10185000F00100EBC00202EB001263689B00B2FBD8
:10186000F3F26423B2FBF3F201EB021200EBC001CE
:1018700001EB001163689B00B1FBF3F100EBC003C7
:1018800003EB00136668B600B3FBF6F36426B3FB04
:10189000F6F303EBC30606EB0313A1EB830132233C
:1018A00003EB01116423B1FBF3F101F00F011144CB
:1018B0002268916053E0FFF747F800EBC00101EBAD
:1018C000001162689200B1FBF2F100EBC00202EB82
:1018D000001263689B00B2FBF3F26423B2FBF3F2E5
:1018E00002EBC20303EB0212A1EB8201322202EBF4
:1018F00001116422B1FBF2F101F0F00100EBC00232
:1019000002EB001263689B00B2FBF3F26423B2FBAC
:10191000F3F201EB021200EBC00101EB001163686E
:101920009B00B1FBF3F100EBC00303EB001366680F
:10193000B600B3FBF6F36426B3FBF6F303EBC30682
:1019400006EB0313A1EB8301322303EB01116423A4
:10195000B1FBF3F101F00F0111442268916070BDF9
:101960000038014010B5024800F031F810BD000009
:10197000A800002010B5024800F029F810BD0000B2
:10198000D408002070B504460D46012000F064F92B
:10199000668B002000F060F90EB9002070BD218B2D
:1019A000A068405C2870012000F056F9208B401C94
:1019B00080B22083E189884201DB00202083608B94
:1019C000401E6083002000F047F90120E6E72DE982
:1019D000F0410446206805682068C6682068D0F891
:1019E000148005F02000D8B120684068C7B2E18AB1
:1019F000A0684754E08A401C80B2E082E1898842B6
:101A000001DB0020E082608BE189884202DA608B92
:101A1000401C6083606A10B13846616A884700BF25
:101A200005F0800028B306F0800010B3A08A60B9EA
:101A30002068C06820F080002168C8602068C06805
:101A400040F040002168C86013E0012084F82800BD
:101A5000618A6068405C21684860608A401C80B28E
:101A60006082A189884201DB00206082A08A401E3A
:101A7000A08205F0400018B306F0400000B3A08A31
:101A800068B92068C06820F040002168C860206AFA
:101A900008B1206A8047002084F8280010E0618A9D
:101AA0006068405C21684860608A401C80B2608247
:101AB000A189884201DB00206082A08A401EA082AA
:101AC000BDE8F081F8B504460F461646002539E01A
:101AD0001EE0012000F0C0F8A08A0090002000F075
:101AE000BBF8A089BDF80010884200DD11E0A08994
:101AF000BDF8001088420AD12068C06800F080005C
:101B000028B92068C06840F080002168C86000BF24
:101B1000DFE700BF785D228A61688854012000F009
:101B20009BF8208A401C80B22082A189884201DB78
:101B300000202082A08A401CA082002000F08CF8A7
:101B4000681C85B2B542C3DB2068C06840F08000E5
:101B50002168C860F8BD0000174818490860184897
:101B60004860184888604FF480608881C8810020F0
:101B700008824882C882088348838882C8610862D4
:101B8000486281F8280010481049086010484860F1
:101B9000104888604FF480608881C88100200882E6
:101BA0004882C882088348838882C8610862486284
:101BB00081F828007047000000380140A80000208C
:101BC000D4000020D404002000440040D4080020A9
:101BD00000090020000D002000BFFEE70FB4054BF8
:101BE00010B503A9044A029800F039F810BC5DF85A
:101BF00014FB000071210008340000200248006836
:101C0000C0F30220704700000CED00E010B5002882
:101C100004DB0A07130E054A135406E00A07140EE4
:101C2000034A00F00F031B1FD45410BD00E400E072
:101C300018ED00E002E008C8121F08C1002AFAD11E
:101C400070477047002001E001C1121F002AFBD13C
:101C5000704780F31088704780F3108870472DE933
:101C6000F84F9946924688460546002706E0252803
:101C70000AD051464A4690476D1C7F1C28780028A0
:101C8000F5D13846BDE8F88F002315F8011F184636
:101C90002E2915D115F8011F04232A290DD06FF024
:101CA0002F022978A1F13004092C09D800EB80001B
:101CB00002EB400008446D1CF3E758F8040B6D1C60
:101CC0002A78002ADDD0632A07D0732A0FD0104665
:101CD00051464A4690477F1C2AE018F8042B8DF89D
:101CE000002000218DF801106E46012103E058F814
:101CF000046B4FF0FF315A074FF0000401D409E0A4
:101D0000641C84420BDA8C42FADB325D002AF7D184
:101D100005E0641C8C42FCDB305D0028F9D12744CF
:101D200004E016F8010B51464A469047641EF8D26B
:101D30006D1CA3E70146042901DB0020704701EB7D
:101D40004100084A02EB80004078012808D10020B9
:101D500001EB4102034B03EB820250700120EDE7DF
:101D60000020EBE77800002010B5044604B910BD50
:101D7000012C00D102240120FFF76BFF0948046009
:101D8000002009490870FFF764FF06E000F00EF834
:101D900005480078012800D100E0F7E700BF00BF48
:101DA000E5E700001000002014000020704710B587
:101DB000FEF760FCFFF70AFC00F05EF800F0B6F8F2
:101DC00000F008F910BD0000F0B591B0402101A865
:101DD000FEF7AFF94FF0804600BF1C48C06940F0E5
:101DE00001001A49C8610846C06900F0010000906E
:101DF00000BF00BF1648006847081648B7FBF0F060
:101E0000401E85B2B6F1804F01D14FF6FF740196A6
:101E10000295049400210591039106918021079178
:101E200001A8FFF747F820B140F21B210AA0FEF7F6
:101E30007EFA022200211C20FEF767FC1C20FEF720
:101E400054FC01A8FFF751F811B0F0BD001002409A
:101E50002C00002040420F002E2E5C2E2E5C55736D
:101E600065725C6273705C7372635C6273705F74E2
:101E7000696D65722E63000010B500F02FF800F058
:101E800001F810BD10B586B000BF1248806940F05F
:101E90000800104988610846806900F00800019038
:101EA00000BF00BF00200390049003200590002491
:101EB0000CE0094800EBC40080880290064951F804
:101EC000340002A9FEF738FA601CC4B2012CF0DB22
:101ED00006B010BD00100240202200080021114A67
:101EE0009172D1721173002018E064210E4A02EB46
:101EF0000012118102210C4A02EB00121171002123
:101F0000094A02EB00129172074A02EB0012D172E9
:101F1000054A02EB00121173411CC8B20328E4DB2E
:101F200070470000680000203800002070B50024D1
:101F300016E0002004EB4401214A02EB81014860D5
:101F400004EB440102EB8101886004EB440102EBE5
:101F50008101487004EB440102F82100601CC4B206
:101F6000042CE6DB174800684FF47A72B0FBF2F1FC
:101F7000481EB0F1807F00D31BE0481E4FF0E022E6
:101F8000506150170F22002804DB13071D0E0E4B63
:101F90001D5406E013071E0E0C4B00F00F052D1FFD
:101FA0005E5500BF00204FF0E022906107201061D5
:101FB00000BF012006490870FFF706FF70BD000052
:101FC000780000202C00002000E400E018ED00E084
:101FD0001C00002010B5FFF7BFFDFFF759F8FFF711
:101FE0003DFA10BD70477047F0B591B004460D46FC
:101FF00017461E460194029500210391049105970E
:1020000007910696089101A8FEF784FF20B14FF4CE
:10201000497102A0FEF78BF911B0F0BD2E2E5C2E97
:102020002E5C557365725C6273705C7372635C6284
:1020300073705F756172745F6669666F2E6300000E
:10204000416851B14168491E416031B90121417077
:102050000178012901D181684160704770B504465B
:102060000D46042C06DB124A12A11AA0FFF7B6FD9A
:1020700000BFFEE70120FFF7ECFD04EB44001D4923
:1020800001EB8000456004EB440001EB80008560BB
:10209000002004EB4401174A02EB81014870012043
:1020A00004EB440102F821000020FFF7D2FD70BDCF
:1020B000372200082E2E5C2E2E5C557365725C62F2
:1020C00073705C7372635C6273705F74696D657268
:1020D0002E6300004572726F723A2066696C65204B
:1020E00025732C2066756E6374696F6E20257328C6
:1020F000290D0A007800002070B505462846FEF735
:10210000D7F8044604B970BD0020E08220836083C4
:1021100000BFF8E770B505460E462846FEF7C8F83A
:1021200004460CB9002070BD31462046FFF72AFC5A
:10213000F9E72DE9F04105460E4617462846FEF719
:10214000B7F804460CB9BDE8F081E06908B1E06970
:1021500080473A4631462046FFF7B4FC00BFF2E71D
:1021600013B50446012201A92046FFF7E2FF1CBD7A
:1021700070B504460D46E1B20020FFF7F1FF20469E
:1021800070BD000008B5FFF712FEFFF7EFF8FFF78C
:10219000ABF8FFF7A7F9FFF783F9FEF705F8FEF7AD
:1021A00053F84FF47A710020FFF758FF34E0FFF73F
:1021B000FDFD0020FFF7BEFDC8B1FFF72FF850B1BD
:1021C000012251021548FEF73DFA0122110213487F
:1021D000FEF738FA0BE000224FF400710F48FEF7CB
:1021E00031FA00224FF400710C48FEF72BFA6946D1
:1021F0000020FFF78FFF20B19DF800100120FFF7AE
:10220000AFFF69460120FFF785FF20B19DF8001060
:102210000020FFF7A5FF00BFC9E70000000C014048
:10222000000C0140001000006273705F5374617213
:102230007454696D6572006273705F537461727477
:102240004175746F54696D6572006273705F537489
:102250006F7054696D65720000000000000000009E
:10226000010203040607080900000000010203043C
:10227000902200080000002038000000341C0008F4
:10228000C82200083800002008150000441C00087F
:10229000000000000000000000000000000000003E
:1022A000000000000000000000000000000000002E
:1022B00000000000100000000100000000A24A041D
:0822C000000000000000000016
:04000005080000ED02
:00000001FF
